{
  "contractName": "NftMarket",
  "abi": [
    {
      "inputs": [],
      "stateMutability": "nonpayable",
      "type": "constructor"
    },
    {
      "anonymous": false,
      "inputs": [
        {
          "indexed": true,
          "internalType": "address",
          "name": "owner",
          "type": "address"
        },
        {
          "indexed": true,
          "internalType": "address",
          "name": "approved",
          "type": "address"
        },
        {
          "indexed": true,
          "internalType": "uint256",
          "name": "tokenId",
          "type": "uint256"
        }
      ],
      "name": "Approval",
      "type": "event"
    },
    {
      "anonymous": false,
      "inputs": [
        {
          "indexed": true,
          "internalType": "address",
          "name": "owner",
          "type": "address"
        },
        {
          "indexed": true,
          "internalType": "address",
          "name": "operator",
          "type": "address"
        },
        {
          "indexed": false,
          "internalType": "bool",
          "name": "approved",
          "type": "bool"
        }
      ],
      "name": "ApprovalForAll",
      "type": "event"
    },
    {
      "anonymous": false,
      "inputs": [
        {
          "indexed": false,
          "internalType": "uint256",
          "name": "tokenId",
          "type": "uint256"
        },
        {
          "indexed": false,
          "internalType": "uint256",
          "name": "price",
          "type": "uint256"
        },
        {
          "indexed": false,
          "internalType": "address",
          "name": "creator",
          "type": "address"
        },
        {
          "indexed": false,
          "internalType": "bool",
          "name": "isListed",
          "type": "bool"
        }
      ],
      "name": "NftItemCreated",
      "type": "event"
    },
    {
      "anonymous": false,
      "inputs": [
        {
          "indexed": true,
          "internalType": "address",
          "name": "previousOwner",
          "type": "address"
        },
        {
          "indexed": true,
          "internalType": "address",
          "name": "newOwner",
          "type": "address"
        }
      ],
      "name": "OwnershipTransferred",
      "type": "event"
    },
    {
      "anonymous": false,
      "inputs": [
        {
          "indexed": true,
          "internalType": "address",
          "name": "from",
          "type": "address"
        },
        {
          "indexed": true,
          "internalType": "address",
          "name": "to",
          "type": "address"
        },
        {
          "indexed": true,
          "internalType": "uint256",
          "name": "tokenId",
          "type": "uint256"
        }
      ],
      "name": "Transfer",
      "type": "event"
    },
    {
      "inputs": [
        {
          "internalType": "address",
          "name": "to",
          "type": "address"
        },
        {
          "internalType": "uint256",
          "name": "tokenId",
          "type": "uint256"
        }
      ],
      "name": "approve",
      "outputs": [],
      "stateMutability": "nonpayable",
      "type": "function"
    },
    {
      "inputs": [
        {
          "internalType": "address",
          "name": "owner",
          "type": "address"
        }
      ],
      "name": "balanceOf",
      "outputs": [
        {
          "internalType": "uint256",
          "name": "",
          "type": "uint256"
        }
      ],
      "stateMutability": "view",
      "type": "function",
      "constant": true
    },
    {
      "inputs": [
        {
          "internalType": "uint256",
          "name": "tokenId",
          "type": "uint256"
        }
      ],
      "name": "getApproved",
      "outputs": [
        {
          "internalType": "address",
          "name": "",
          "type": "address"
        }
      ],
      "stateMutability": "view",
      "type": "function",
      "constant": true
    },
    {
      "inputs": [
        {
          "internalType": "address",
          "name": "owner",
          "type": "address"
        },
        {
          "internalType": "address",
          "name": "operator",
          "type": "address"
        }
      ],
      "name": "isApprovedForAll",
      "outputs": [
        {
          "internalType": "bool",
          "name": "",
          "type": "bool"
        }
      ],
      "stateMutability": "view",
      "type": "function",
      "constant": true
    },
    {
      "inputs": [],
      "name": "listingFee",
      "outputs": [
        {
          "internalType": "uint256",
          "name": "",
          "type": "uint256"
        }
      ],
      "stateMutability": "view",
      "type": "function",
      "constant": true
    },
    {
      "inputs": [],
      "name": "name",
      "outputs": [
        {
          "internalType": "string",
          "name": "",
          "type": "string"
        }
      ],
      "stateMutability": "view",
      "type": "function",
      "constant": true
    },
    {
      "inputs": [],
      "name": "owner",
      "outputs": [
        {
          "internalType": "address",
          "name": "",
          "type": "address"
        }
      ],
      "stateMutability": "view",
      "type": "function",
      "constant": true
    },
    {
      "inputs": [
        {
          "internalType": "uint256",
          "name": "tokenId",
          "type": "uint256"
        }
      ],
      "name": "ownerOf",
      "outputs": [
        {
          "internalType": "address",
          "name": "",
          "type": "address"
        }
      ],
      "stateMutability": "view",
      "type": "function",
      "constant": true
    },
    {
      "inputs": [],
      "name": "renounceOwnership",
      "outputs": [],
      "stateMutability": "nonpayable",
      "type": "function"
    },
    {
      "inputs": [
        {
          "internalType": "address",
          "name": "from",
          "type": "address"
        },
        {
          "internalType": "address",
          "name": "to",
          "type": "address"
        },
        {
          "internalType": "uint256",
          "name": "tokenId",
          "type": "uint256"
        }
      ],
      "name": "safeTransferFrom",
      "outputs": [],
      "stateMutability": "nonpayable",
      "type": "function"
    },
    {
      "inputs": [
        {
          "internalType": "address",
          "name": "from",
          "type": "address"
        },
        {
          "internalType": "address",
          "name": "to",
          "type": "address"
        },
        {
          "internalType": "uint256",
          "name": "tokenId",
          "type": "uint256"
        },
        {
          "internalType": "bytes",
          "name": "data",
          "type": "bytes"
        }
      ],
      "name": "safeTransferFrom",
      "outputs": [],
      "stateMutability": "nonpayable",
      "type": "function"
    },
    {
      "inputs": [
        {
          "internalType": "address",
          "name": "operator",
          "type": "address"
        },
        {
          "internalType": "bool",
          "name": "approved",
          "type": "bool"
        }
      ],
      "name": "setApprovalForAll",
      "outputs": [],
      "stateMutability": "nonpayable",
      "type": "function"
    },
    {
      "inputs": [
        {
          "internalType": "bytes4",
          "name": "interfaceId",
          "type": "bytes4"
        }
      ],
      "name": "supportsInterface",
      "outputs": [
        {
          "internalType": "bool",
          "name": "",
          "type": "bool"
        }
      ],
      "stateMutability": "view",
      "type": "function",
      "constant": true
    },
    {
      "inputs": [],
      "name": "symbol",
      "outputs": [
        {
          "internalType": "string",
          "name": "",
          "type": "string"
        }
      ],
      "stateMutability": "view",
      "type": "function",
      "constant": true
    },
    {
      "inputs": [
        {
          "internalType": "uint256",
          "name": "tokenId",
          "type": "uint256"
        }
      ],
      "name": "tokenURI",
      "outputs": [
        {
          "internalType": "string",
          "name": "",
          "type": "string"
        }
      ],
      "stateMutability": "view",
      "type": "function",
      "constant": true
    },
    {
      "inputs": [
        {
          "internalType": "address",
          "name": "from",
          "type": "address"
        },
        {
          "internalType": "address",
          "name": "to",
          "type": "address"
        },
        {
          "internalType": "uint256",
          "name": "tokenId",
          "type": "uint256"
        }
      ],
      "name": "transferFrom",
      "outputs": [],
      "stateMutability": "nonpayable",
      "type": "function"
    },
    {
      "inputs": [
        {
          "internalType": "address",
          "name": "newOwner",
          "type": "address"
        }
      ],
      "name": "transferOwnership",
      "outputs": [],
      "stateMutability": "nonpayable",
      "type": "function"
    },
    {
      "inputs": [
        {
          "internalType": "string",
          "name": "tokenURI",
          "type": "string"
        },
        {
          "internalType": "uint256",
          "name": "price",
          "type": "uint256"
        }
      ],
      "name": "mintToken",
      "outputs": [
        {
          "internalType": "uint256",
          "name": "",
          "type": "uint256"
        }
      ],
      "stateMutability": "payable",
      "type": "function",
      "payable": true
    },
    {
      "inputs": [
        {
          "internalType": "uint256",
          "name": "tokenId",
          "type": "uint256"
        }
      ],
      "name": "getNftItem",
      "outputs": [
        {
          "components": [
            {
              "internalType": "uint256",
              "name": "tokenId",
              "type": "uint256"
            },
            {
              "internalType": "uint256",
              "name": "price",
              "type": "uint256"
            },
            {
              "internalType": "address",
              "name": "creator",
              "type": "address"
            },
            {
              "internalType": "bool",
              "name": "isListed",
              "type": "bool"
            }
          ],
          "internalType": "struct NftMarket.NftItem",
          "name": "",
          "type": "tuple"
        }
      ],
      "stateMutability": "view",
      "type": "function",
      "constant": true
    },
    {
      "inputs": [],
      "name": "listedItemsCount",
      "outputs": [
        {
          "internalType": "uint256",
          "name": "",
          "type": "uint256"
        }
      ],
      "stateMutability": "view",
      "type": "function",
      "constant": true
    },
    {
      "inputs": [
        {
          "internalType": "string",
          "name": "tokenURI",
          "type": "string"
        }
      ],
      "name": "tokenURIExists",
      "outputs": [
        {
          "internalType": "bool",
          "name": "",
          "type": "bool"
        }
      ],
      "stateMutability": "view",
      "type": "function",
      "constant": true
    },
    {
      "inputs": [
        {
          "internalType": "uint256",
          "name": "tokenId",
          "type": "uint256"
        }
      ],
      "name": "buyNft",
      "outputs": [],
      "stateMutability": "payable",
      "type": "function",
      "payable": true
    },
    {
      "inputs": [
        {
          "internalType": "uint256",
          "name": "tokenId",
          "type": "uint256"
        },
        {
          "internalType": "uint256",
          "name": "newPrice",
          "type": "uint256"
        }
      ],
      "name": "placeNftForSale",
      "outputs": [],
      "stateMutability": "payable",
      "type": "function",
      "payable": true
    },
    {
      "inputs": [],
      "name": "totalSupply",
      "outputs": [
        {
          "internalType": "uint256",
          "name": "",
          "type": "uint256"
        }
      ],
      "stateMutability": "view",
      "type": "function",
      "constant": true
    },
    {
      "inputs": [
        {
          "internalType": "uint256",
          "name": "index",
          "type": "uint256"
        }
      ],
      "name": "tokenByIndex",
      "outputs": [
        {
          "internalType": "uint256",
          "name": "",
          "type": "uint256"
        }
      ],
      "stateMutability": "view",
      "type": "function",
      "constant": true
    },
    {
      "inputs": [
        {
          "internalType": "address",
          "name": "owner",
          "type": "address"
        },
        {
          "internalType": "uint256",
          "name": "index",
          "type": "uint256"
        }
      ],
      "name": "tokenOfOwnerByIndex",
      "outputs": [
        {
          "internalType": "uint256",
          "name": "",
          "type": "uint256"
        }
      ],
      "stateMutability": "view",
      "type": "function",
      "constant": true
    },
    {
      "inputs": [],
      "name": "getAllNftsForSale",
      "outputs": [
        {
          "components": [
            {
              "internalType": "uint256",
              "name": "tokenId",
              "type": "uint256"
            },
            {
              "internalType": "uint256",
              "name": "price",
              "type": "uint256"
            },
            {
              "internalType": "address",
              "name": "creator",
              "type": "address"
            },
            {
              "internalType": "bool",
              "name": "isListed",
              "type": "bool"
            }
          ],
          "internalType": "struct NftMarket.NftItem[]",
          "name": "",
          "type": "tuple[]"
        }
      ],
      "stateMutability": "view",
      "type": "function",
      "constant": true
    },
    {
      "inputs": [],
      "name": "getOwnedNfts",
      "outputs": [
        {
          "components": [
            {
              "internalType": "uint256",
              "name": "tokenId",
              "type": "uint256"
            },
            {
              "internalType": "uint256",
              "name": "price",
              "type": "uint256"
            },
            {
              "internalType": "address",
              "name": "creator",
              "type": "address"
            },
            {
              "internalType": "bool",
              "name": "isListed",
              "type": "bool"
            }
          ],
          "internalType": "struct NftMarket.NftItem[]",
          "name": "",
          "type": "tuple[]"
        }
      ],
      "stateMutability": "view",
      "type": "function",
      "constant": true
    }
  ],
  "bytecode": "0x60806040526658d15e176280006008553480156200001c57600080fd5b506040518060400160405280600c81526020017f4372656174757265734e465400000000000000000000000000000000000000008152506040518060400160405280600481526020017f434e4654000000000000000000000000000000000000000000000000000000008152508160009080519060200190620000a1929190620001b1565b508060019080519060200190620000ba929190620001b1565b505050620000dd620000d1620000e360201b60201c565b620000eb60201b60201c565b620002c6565b600033905090565b6000600760009054906101000a900473ffffffffffffffffffffffffffffffffffffffff16905081600760006101000a81548173ffffffffffffffffffffffffffffffffffffffff021916908373ffffffffffffffffffffffffffffffffffffffff1602179055508173ffffffffffffffffffffffffffffffffffffffff168173ffffffffffffffffffffffffffffffffffffffff167f8be0079c531659141344cd1fd0a4f28419497f9722a3daafe3b4186f6b6457e060405160405180910390a35050565b828054620001bf9062000290565b90600052602060002090601f016020900481019282620001e357600085556200022f565b82601f10620001fe57805160ff19168380011785556200022f565b828001600101855582156200022f579182015b828111156200022e57825182559160200191906001019062000211565b5b5090506200023e919062000242565b5090565b5b808211156200025d57600081600090555060010162000243565b5090565b7f4e487b7100000000000000000000000000000000000000000000000000000000600052602260045260246000fd5b60006002820490506001821680620002a957607f821691505b60208210811415620002c057620002bf62000261565b5b50919050565b6145d380620002d66000396000f3fe6080604052600436106101b75760003560e01c806370a08231116100ec578063a22cb4651161008a578063c87b56dd11610064578063c87b56dd1461061d578063ccb4918d1461065a578063e985e9c514610685578063f2fde38b146106c2576101b7565b8063a22cb4651461059b578063b88d4fde146105c4578063c046372c146105ed576101b7565b80637b687bf8116100c65780637b687bf8146104fe5780638da5cb5b1461052957806395d89b41146105545780639ba63b481461057f576101b7565b806370a082311461047f57806370cbcb43146104bc578063715018a6146104e7576101b7565b80632f745c59116101595780634f6ccce7116101335780634f6ccce71461039d5780636352211e146103da5780636a1b7ecc146104175780636f1a0af514610442576101b7565b80632f745c59146102fa57806342842e0e1461033757806343d32ae714610360576101b7565b8063095ea7b311610195578063095ea7b31461026157806318160ddd1461028a57806323b872dd146102b5578063243adbdd146102de576101b7565b806301ffc9a7146101bc57806306fdde03146101f9578063081812fc14610224575b600080fd5b3480156101c857600080fd5b506101e360048036038101906101de9190612db6565b6106eb565b6040516101f09190612dfe565b60405180910390f35b34801561020557600080fd5b5061020e6107cd565b60405161021b9190612eb2565b60405180910390f35b34801561023057600080fd5b5061024b60048036038101906102469190612f0a565b61085f565b6040516102589190612f78565b60405180910390f35b34801561026d57600080fd5b5061028860048036038101906102839190612fbf565b6108a5565b005b34801561029657600080fd5b5061029f6109bd565b6040516102ac919061300e565b60405180910390f35b3480156102c157600080fd5b506102dc60048036038101906102d79190613029565b6109ca565b005b6102f860048036038101906102f39190612f0a565b610a2a565b005b34801561030657600080fd5b50610321600480360381019061031c9190612fbf565b610b93565b60405161032e919061300e565b60405180910390f35b34801561034357600080fd5b5061035e60048036038101906103599190613029565b610c38565b005b34801561036c57600080fd5b50610387600480360381019061038291906131b1565b610c58565b6040516103949190612dfe565b60405180910390f35b3480156103a957600080fd5b506103c460048036038101906103bf9190612f0a565b610c94565b6040516103d1919061300e565b60405180910390f35b3480156103e657600080fd5b5061040160048036038101906103fc9190612f0a565b610d05565b60405161040e9190612f78565b60405180910390f35b34801561042357600080fd5b5061042c610db7565b604051610439919061300e565b60405180910390f35b34801561044e57600080fd5b5061046960048036038101906104649190612f0a565b610dbd565b604051610476919061327c565b60405180910390f35b34801561048b57600080fd5b506104a660048036038101906104a19190613297565b610e6f565b6040516104b3919061300e565b60405180910390f35b3480156104c857600080fd5b506104d1610f27565b6040516104de91906133c8565b60405180910390f35b3480156104f357600080fd5b506104fc61108b565b005b34801561050a57600080fd5b5061051361109f565b60405161052091906133c8565b60405180910390f35b34801561053557600080fd5b5061053e61123a565b60405161054b9190612f78565b60405180910390f35b34801561056057600080fd5b50610569611264565b6040516105769190612eb2565b60405180910390f35b610599600480360381019061059491906133ea565b6112f6565b005b3480156105a757600080fd5b506105c260048036038101906105bd9190613456565b611472565b005b3480156105d057600080fd5b506105eb60048036038101906105e69190613537565b611488565b005b610607600480360381019061060291906135ba565b6114ea565b604051610614919061300e565b60405180910390f35b34801561062957600080fd5b50610644600480360381019061063f9190612f0a565b6115fa565b6040516106519190612eb2565b60405180910390f35b34801561066657600080fd5b5061066f61170d565b60405161067c919061300e565b60405180910390f35b34801561069157600080fd5b506106ac60048036038101906106a79190613616565b61171e565b6040516106b99190612dfe565b60405180910390f35b3480156106ce57600080fd5b506106e960048036038101906106e49190613297565b6117b2565b005b60007f80ac58cd000000000000000000000000000000000000000000000000000000007bffffffffffffffffffffffffffffffffffffffffffffffffffffffff1916827bffffffffffffffffffffffffffffffffffffffffffffffffffffffff191614806107b657507f5b5e139f000000000000000000000000000000000000000000000000000000007bffffffffffffffffffffffffffffffffffffffffffffffffffffffff1916827bffffffffffffffffffffffffffffffffffffffffffffffffffffffff1916145b806107c657506107c582611836565b5b9050919050565b6060600080546107dc90613685565b80601f016020809104026020016040519081016040528092919081815260200182805461080890613685565b80156108555780601f1061082a57610100808354040283529160200191610855565b820191906000526020600020905b81548152906001019060200180831161083857829003601f168201915b5050505050905090565b600061086a826118a0565b6004600083815260200190815260200160002060009054906101000a900473ffffffffffffffffffffffffffffffffffffffff169050919050565b60006108b082610d05565b90508073ffffffffffffffffffffffffffffffffffffffff168373ffffffffffffffffffffffffffffffffffffffff161415610921576040517f08c379a000000000000000000000000000000000000000000000000000000000815260040161091890613729565b60405180910390fd5b8073ffffffffffffffffffffffffffffffffffffffff166109406118eb565b73ffffffffffffffffffffffffffffffffffffffff16148061096f575061096e816109696118eb565b61171e565b5b6109ae576040517f08c379a00000000000000000000000000000000000000000000000000000000081526004016109a5906137bb565b60405180910390fd5b6109b883836118f3565b505050565b6000600b80549050905090565b6109db6109d56118eb565b826119ac565b610a1a576040517f08c379a0000000000000000000000000000000000000000000000000000000008152600401610a119061384d565b60405180910390fd5b610a25838383611a41565b505050565b6000600d60008381526020019081526020016000206001015490506000610a5083610d05565b90508073ffffffffffffffffffffffffffffffffffffffff163373ffffffffffffffffffffffffffffffffffffffff161415610ac1576040517f08c379a0000000000000000000000000000000000000000000000000000000008152600401610ab8906138b9565b60405180910390fd5b813414610b03576040517f08c379a0000000000000000000000000000000000000000000000000000000008152600401610afa90613925565b60405180910390fd5b6000600d600085815260200190815260200160002060020160146101000a81548160ff021916908315150217905550610b3c6009611ca8565b610b47813385611a41565b8073ffffffffffffffffffffffffffffffffffffffff166108fc349081150290604051600060405180830381858888f19350505050158015610b8d573d6000803e3d6000fd5b50505050565b6000610b9e83610e6f565b8210610bdf576040517f08c379a0000000000000000000000000000000000000000000000000000000008152600401610bd690613991565b60405180910390fd5b600f60008473ffffffffffffffffffffffffffffffffffffffff1673ffffffffffffffffffffffffffffffffffffffff168152602001908152602001600020600083815260200190815260200160002054905092915050565b610c5383838360405180602001604052806000815250611488565b505050565b600060011515600c83604051610c6e91906139ed565b908152602001604051809103902060009054906101000a900460ff161515149050919050565b6000610c9e6109bd565b8210610cdf576040517f08c379a0000000000000000000000000000000000000000000000000000000008152600401610cd690613991565b60405180910390fd5b600b8281548110610cf357610cf2613a04565b5b90600052602060002001549050919050565b6000806002600084815260200190815260200160002060009054906101000a900473ffffffffffffffffffffffffffffffffffffffff169050600073ffffffffffffffffffffffffffffffffffffffff168173ffffffffffffffffffffffffffffffffffffffff161415610dae576040517f08c379a0000000000000000000000000000000000000000000000000000000008152600401610da590613a7f565b60405180910390fd5b80915050919050565b60085481565b610dc5612c67565b600d600083815260200190815260200160002060405180608001604052908160008201548152602001600182015481526020016002820160009054906101000a900473ffffffffffffffffffffffffffffffffffffffff1673ffffffffffffffffffffffffffffffffffffffff1673ffffffffffffffffffffffffffffffffffffffff1681526020016002820160149054906101000a900460ff1615151515815250509050919050565b60008073ffffffffffffffffffffffffffffffffffffffff168273ffffffffffffffffffffffffffffffffffffffff161415610ee0576040517f08c379a0000000000000000000000000000000000000000000000000000000008152600401610ed790613b11565b60405180910390fd5b600360008373ffffffffffffffffffffffffffffffffffffffff1673ffffffffffffffffffffffffffffffffffffffff168152602001908152602001600020549050919050565b60606000610f3433610e6f565b905060008167ffffffffffffffff811115610f5257610f51613086565b5b604051908082528060200260200182016040528015610f8b57816020015b610f78612c67565b815260200190600190039081610f705790505b50905060005b82811015611082576000610fa53383610b93565b90506000600d600083815260200190815260200160002090508060405180608001604052908160008201548152602001600182015481526020016002820160009054906101000a900473ffffffffffffffffffffffffffffffffffffffff1673ffffffffffffffffffffffffffffffffffffffff1673ffffffffffffffffffffffffffffffffffffffff1681526020016002820160149054906101000a900460ff16151515158152505084848151811061106257611061613a04565b5b60200260200101819052505050808061107a90613b60565b915050610f91565b50809250505090565b611093611d04565b61109d6000611d82565b565b606060006110ab6109bd565b90506000806110ba6009611e48565b67ffffffffffffffff8111156110d3576110d2613086565b5b60405190808252806020026020018201604052801561110c57816020015b6110f9612c67565b8152602001906001900390816110f15790505b50905060005b8381101561123057600061112582610c94565b90506000600d60008381526020019081526020016000209050600115158160020160149054906101000a900460ff161515141561121b578060405180608001604052908160008201548152602001600182015481526020016002820160009054906101000a900473ffffffffffffffffffffffffffffffffffffffff1673ffffffffffffffffffffffffffffffffffffffff1673ffffffffffffffffffffffffffffffffffffffff1681526020016002820160149054906101000a900460ff161515151581525050848681518110611200576111ff613a04565b5b60200260200101819052506001856112189190613ba9565b94505b5050808061122890613b60565b915050611112565b5080935050505090565b6000600760009054906101000a900473ffffffffffffffffffffffffffffffffffffffff16905090565b60606001805461127390613685565b80601f016020809104026020016040519081016040528092919081815260200182805461129f90613685565b80156112ec5780601f106112c1576101008083540402835291602001916112ec565b820191906000526020600020905b8154815290600101906020018083116112cf57829003601f168201915b5050505050905090565b3373ffffffffffffffffffffffffffffffffffffffff1661131683610d05565b73ffffffffffffffffffffffffffffffffffffffff161461136c576040517f08c379a000000000000000000000000000000000000000000000000000000000815260040161136390613c4b565b60405180910390fd5b60001515600d600084815260200190815260200160002060020160149054906101000a900460ff161515146113d6576040517f08c379a00000000000000000000000000000000000000000000000000000000081526004016113cd90613cdd565b60405180910390fd5b600854341461141a576040517f08c379a000000000000000000000000000000000000000000000000000000000815260040161141190613d6f565b60405180910390fd5b6001600d600084815260200190815260200160002060020160146101000a81548160ff02191690831515021790555080600d60008481526020019081526020016000206001018190555061146e6009611e56565b5050565b61148461147d6118eb565b8383611e6c565b5050565b6114996114936118eb565b836119ac565b6114d8576040517f08c379a00000000000000000000000000000000000000000000000000000000081526004016114cf9061384d565b60405180910390fd5b6114e484848484611fd9565b50505050565b60006114f583610c58565b15611535576040517f08c379a000000000000000000000000000000000000000000000000000000000815260040161152c90613ddb565b60405180910390fd5b6008543414611579576040517f08c379a000000000000000000000000000000000000000000000000000000000815260040161157090613d6f565b60405180910390fd5b611583600a611e56565b61158d6009611e56565b6000611599600a611e48565b90506115a53382612035565b6115af8185612053565b6115b981846120c7565b6001600c856040516115cb91906139ed565b908152602001604051809103902060006101000a81548160ff0219169083151502179055508091505092915050565b6060611605826118a0565b600060066000848152602001908152602001600020805461162590613685565b80601f016020809104026020016040519081016040528092919081815260200182805461165190613685565b801561169e5780601f106116735761010080835404028352916020019161169e565b820191906000526020600020905b81548152906001019060200180831161168157829003601f168201915b5050505050905060006116af612217565b90506000815114156116c5578192505050611708565b6000825111156116fa5780826040516020016116e2929190613dfb565b60405160208183030381529060405292505050611708565b6117038461222e565b925050505b919050565b60006117196009611e48565b905090565b6000600560008473ffffffffffffffffffffffffffffffffffffffff1673ffffffffffffffffffffffffffffffffffffffff16815260200190815260200160002060008373ffffffffffffffffffffffffffffffffffffffff1673ffffffffffffffffffffffffffffffffffffffff16815260200190815260200160002060009054906101000a900460ff16905092915050565b6117ba611d04565b600073ffffffffffffffffffffffffffffffffffffffff168173ffffffffffffffffffffffffffffffffffffffff16141561182a576040517f08c379a000000000000000000000000000000000000000000000000000000000815260040161182190613e91565b60405180910390fd5b61183381611d82565b50565b60007f01ffc9a7000000000000000000000000000000000000000000000000000000007bffffffffffffffffffffffffffffffffffffffffffffffffffffffff1916827bffffffffffffffffffffffffffffffffffffffffffffffffffffffff1916149050919050565b6118a981612296565b6118e8576040517f08c379a00000000000000000000000000000000000000000000000000000000081526004016118df90613a7f565b60405180910390fd5b50565b600033905090565b816004600083815260200190815260200160002060006101000a81548173ffffffffffffffffffffffffffffffffffffffff021916908373ffffffffffffffffffffffffffffffffffffffff160217905550808273ffffffffffffffffffffffffffffffffffffffff1661196683610d05565b73ffffffffffffffffffffffffffffffffffffffff167f8c5be1e5ebec7d5bd14f71427d1e84f3dd0314c0f7b2291e5b200ac8c7c3b92560405160405180910390a45050565b6000806119b883610d05565b90508073ffffffffffffffffffffffffffffffffffffffff168473ffffffffffffffffffffffffffffffffffffffff1614806119fa57506119f9818561171e565b5b80611a3857508373ffffffffffffffffffffffffffffffffffffffff16611a208461085f565b73ffffffffffffffffffffffffffffffffffffffff16145b91505092915050565b8273ffffffffffffffffffffffffffffffffffffffff16611a6182610d05565b73ffffffffffffffffffffffffffffffffffffffff1614611ab7576040517f08c379a0000000000000000000000000000000000000000000000000000000008152600401611aae90613f23565b60405180910390fd5b600073ffffffffffffffffffffffffffffffffffffffff168273ffffffffffffffffffffffffffffffffffffffff161415611b27576040517f08c379a0000000000000000000000000000000000000000000000000000000008152600401611b1e90613fb5565b60405180910390fd5b611b32838383612302565b611b3d6000826118f3565b6001600360008573ffffffffffffffffffffffffffffffffffffffff1673ffffffffffffffffffffffffffffffffffffffff1681526020019081526020016000206000828254611b8d9190613fd5565b925050819055506001600360008473ffffffffffffffffffffffffffffffffffffffff1673ffffffffffffffffffffffffffffffffffffffff1681526020019081526020016000206000828254611be49190613ba9565b92505081905550816002600083815260200190815260200160002060006101000a81548173ffffffffffffffffffffffffffffffffffffffff021916908373ffffffffffffffffffffffffffffffffffffffff160217905550808273ffffffffffffffffffffffffffffffffffffffff168473ffffffffffffffffffffffffffffffffffffffff167fddf252ad1be2c89b69c2b068fc378daa952ba7f163c4a11628f55a4df523b3ef60405160405180910390a4611ca3838383612416565b505050565b60008160000154905060008111611cf4576040517f08c379a0000000000000000000000000000000000000000000000000000000008152600401611ceb90614055565b60405180910390fd5b6001810382600001819055505050565b611d0c6118eb565b73ffffffffffffffffffffffffffffffffffffffff16611d2a61123a565b73ffffffffffffffffffffffffffffffffffffffff1614611d80576040517f08c379a0000000000000000000000000000000000000000000000000000000008152600401611d77906140c1565b60405180910390fd5b565b6000600760009054906101000a900473ffffffffffffffffffffffffffffffffffffffff16905081600760006101000a81548173ffffffffffffffffffffffffffffffffffffffff021916908373ffffffffffffffffffffffffffffffffffffffff1602179055508173ffffffffffffffffffffffffffffffffffffffff168173ffffffffffffffffffffffffffffffffffffffff167f8be0079c531659141344cd1fd0a4f28419497f9722a3daafe3b4186f6b6457e060405160405180910390a35050565b600081600001549050919050565b6001816000016000828254019250508190555050565b8173ffffffffffffffffffffffffffffffffffffffff168373ffffffffffffffffffffffffffffffffffffffff161415611edb576040517f08c379a0000000000000000000000000000000000000000000000000000000008152600401611ed29061412d565b60405180910390fd5b80600560008573ffffffffffffffffffffffffffffffffffffffff1673ffffffffffffffffffffffffffffffffffffffff16815260200190815260200160002060008473ffffffffffffffffffffffffffffffffffffffff1673ffffffffffffffffffffffffffffffffffffffff16815260200190815260200160002060006101000a81548160ff0219169083151502179055508173ffffffffffffffffffffffffffffffffffffffff168373ffffffffffffffffffffffffffffffffffffffff167f17307eab39ab6107e8899845ad3d59bd9653f200f220920489ca2b5937696c3183604051611fcc9190612dfe565b60405180910390a3505050565b611fe4848484611a41565b611ff08484848461241b565b61202f576040517f08c379a0000000000000000000000000000000000000000000000000000000008152600401612026906141bf565b60405180910390fd5b50505050565b61204f8282604051806020016040528060008152506125a3565b5050565b61205c82612296565b61209b576040517f08c379a000000000000000000000000000000000000000000000000000000000815260040161209290614251565b60405180910390fd5b806006600084815260200190815260200160002090805190602001906120c2929190612ca7565b505050565b6000811161210a576040517f08c379a0000000000000000000000000000000000000000000000000000000008152600401612101906142bd565b60405180910390fd5b60405180608001604052808381526020018281526020013373ffffffffffffffffffffffffffffffffffffffff16815260200160011515815250600d6000848152602001908152602001600020600082015181600001556020820151816001015560408201518160020160006101000a81548173ffffffffffffffffffffffffffffffffffffffff021916908373ffffffffffffffffffffffffffffffffffffffff16021790555060608201518160020160146101000a81548160ff0219169083151502179055509050507f470031062672bc0246e132c723a729c4676710ec663a29e86c88678032daddea828233600160405161220b94939291906142dd565b60405180910390a15050565b606060405180602001604052806000815250905090565b6060612239826118a0565b6000612243612217565b90506000815111612263576040518060200160405280600081525061228e565b8061226d846125fe565b60405160200161227e929190613dfb565b6040516020818303038152906040525b915050919050565b60008073ffffffffffffffffffffffffffffffffffffffff166002600084815260200190815260200160002060009054906101000a900473ffffffffffffffffffffffffffffffffffffffff1673ffffffffffffffffffffffffffffffffffffffff1614159050919050565b61230d83838361275f565b600073ffffffffffffffffffffffffffffffffffffffff168373ffffffffffffffffffffffffffffffffffffffff1614156123505761234b81612764565b61238f565b8173ffffffffffffffffffffffffffffffffffffffff168373ffffffffffffffffffffffffffffffffffffffff161461238e5761238d83826127ad565b5b5b600073ffffffffffffffffffffffffffffffffffffffff168273ffffffffffffffffffffffffffffffffffffffff1614156123d2576123cd8161291a565b612411565b8273ffffffffffffffffffffffffffffffffffffffff168273ffffffffffffffffffffffffffffffffffffffff16146124105761240f82826129eb565b5b5b505050565b505050565b600061243c8473ffffffffffffffffffffffffffffffffffffffff16612a6a565b15612596578373ffffffffffffffffffffffffffffffffffffffff1663150b7a026124656118eb565b8786866040518563ffffffff1660e01b81526004016124879493929190614377565b6020604051808303816000875af19250505080156124c357506040513d601f19601f820116820180604052508101906124c091906143d8565b60015b612546573d80600081146124f3576040519150601f19603f3d011682016040523d82523d6000602084013e6124f8565b606091505b5060008151141561253e576040517f08c379a0000000000000000000000000000000000000000000000000000000008152600401612535906141bf565b60405180910390fd5b805181602001fd5b63150b7a0260e01b7bffffffffffffffffffffffffffffffffffffffffffffffffffffffff1916817bffffffffffffffffffffffffffffffffffffffffffffffffffffffff19161491505061259b565b600190505b949350505050565b6125ad8383612a8d565b6125ba600084848461241b565b6125f9576040517f08c379a00000000000000000000000000000000000000000000000000000000081526004016125f0906141bf565b60405180910390fd5b505050565b60606000821415612646576040518060400160405280600181526020017f3000000000000000000000000000000000000000000000000000000000000000815250905061275a565b600082905060005b6000821461267857808061266190613b60565b915050600a826126719190614434565b915061264e565b60008167ffffffffffffffff81111561269457612693613086565b5b6040519080825280601f01601f1916602001820160405280156126c65781602001600182028036833780820191505090505b5090505b60008514612753576001826126df9190613fd5565b9150600a856126ee9190614465565b60306126fa9190613ba9565b60f81b8183815181106127105761270f613a04565b5b60200101907effffffffffffffffffffffffffffffffffffffffffffffffffffffffffffff1916908160001a905350600a8561274c9190614434565b94506126ca565b8093505050505b919050565b505050565b600b80549050600e600083815260200190815260200160002081905550600b81908060018154018082558091505060019003906000526020600020016000909190919091505550565b600060016127ba84610e6f565b6127c49190613fd5565b90506000601060008481526020019081526020016000205490508181146128a9576000600f60008673ffffffffffffffffffffffffffffffffffffffff1673ffffffffffffffffffffffffffffffffffffffff168152602001908152602001600020600084815260200190815260200160002054905080600f60008773ffffffffffffffffffffffffffffffffffffffff1673ffffffffffffffffffffffffffffffffffffffff168152602001908152602001600020600084815260200190815260200160002081905550816010600083815260200190815260200160002081905550505b6010600084815260200190815260200160002060009055600f60008573ffffffffffffffffffffffffffffffffffffffff1673ffffffffffffffffffffffffffffffffffffffff16815260200190815260200160002060008381526020019081526020016000206000905550505050565b60006001600b8054905061292e9190613fd5565b90506000600e60008481526020019081526020016000205490506000600b838154811061295e5761295d613a04565b5b9060005260206000200154905080600b83815481106129805761297f613a04565b5b906000526020600020018190555081600e600083815260200190815260200160002081905550600e600085815260200190815260200160002060009055600b8054806129cf576129ce614496565b5b6001900381819060005260206000200160009055905550505050565b60006129f683610e6f565b905081600f60008573ffffffffffffffffffffffffffffffffffffffff1673ffffffffffffffffffffffffffffffffffffffff168152602001908152602001600020600083815260200190815260200160002081905550806010600084815260200190815260200160002081905550505050565b6000808273ffffffffffffffffffffffffffffffffffffffff163b119050919050565b600073ffffffffffffffffffffffffffffffffffffffff168273ffffffffffffffffffffffffffffffffffffffff161415612afd576040517f08c379a0000000000000000000000000000000000000000000000000000000008152600401612af490614511565b60405180910390fd5b612b0681612296565b15612b46576040517f08c379a0000000000000000000000000000000000000000000000000000000008152600401612b3d9061457d565b60405180910390fd5b612b5260008383612302565b6001600360008473ffffffffffffffffffffffffffffffffffffffff1673ffffffffffffffffffffffffffffffffffffffff1681526020019081526020016000206000828254612ba29190613ba9565b92505081905550816002600083815260200190815260200160002060006101000a81548173ffffffffffffffffffffffffffffffffffffffff021916908373ffffffffffffffffffffffffffffffffffffffff160217905550808273ffffffffffffffffffffffffffffffffffffffff16600073ffffffffffffffffffffffffffffffffffffffff167fddf252ad1be2c89b69c2b068fc378daa952ba7f163c4a11628f55a4df523b3ef60405160405180910390a4612c6360008383612416565b5050565b60405180608001604052806000815260200160008152602001600073ffffffffffffffffffffffffffffffffffffffff1681526020016000151581525090565b828054612cb390613685565b90600052602060002090601f016020900481019282612cd55760008555612d1c565b82601f10612cee57805160ff1916838001178555612d1c565b82800160010185558215612d1c579182015b82811115612d1b578251825591602001919060010190612d00565b5b509050612d299190612d2d565b5090565b5b80821115612d46576000816000905550600101612d2e565b5090565b6000604051905090565b600080fd5b600080fd5b60007fffffffff0000000000000000000000000000000000000000000000000000000082169050919050565b612d9381612d5e565b8114612d9e57600080fd5b50565b600081359050612db081612d8a565b92915050565b600060208284031215612dcc57612dcb612d54565b5b6000612dda84828501612da1565b91505092915050565b60008115159050919050565b612df881612de3565b82525050565b6000602082019050612e136000830184612def565b92915050565b600081519050919050565b600082825260208201905092915050565b60005b83811015612e53578082015181840152602081019050612e38565b83811115612e62576000848401525b50505050565b6000601f19601f8301169050919050565b6000612e8482612e19565b612e8e8185612e24565b9350612e9e818560208601612e35565b612ea781612e68565b840191505092915050565b60006020820190508181036000830152612ecc8184612e79565b905092915050565b6000819050919050565b612ee781612ed4565b8114612ef257600080fd5b50565b600081359050612f0481612ede565b92915050565b600060208284031215612f2057612f1f612d54565b5b6000612f2e84828501612ef5565b91505092915050565b600073ffffffffffffffffffffffffffffffffffffffff82169050919050565b6000612f6282612f37565b9050919050565b612f7281612f57565b82525050565b6000602082019050612f8d6000830184612f69565b92915050565b612f9c81612f57565b8114612fa757600080fd5b50565b600081359050612fb981612f93565b92915050565b60008060408385031215612fd657612fd5612d54565b5b6000612fe485828601612faa565b9250506020612ff585828601612ef5565b9150509250929050565b61300881612ed4565b82525050565b60006020820190506130236000830184612fff565b92915050565b60008060006060848603121561304257613041612d54565b5b600061305086828701612faa565b935050602061306186828701612faa565b925050604061307286828701612ef5565b9150509250925092565b600080fd5b600080fd5b7f4e487b7100000000000000000000000000000000000000000000000000000000600052604160045260246000fd5b6130be82612e68565b810181811067ffffffffffffffff821117156130dd576130dc613086565b5b80604052505050565b60006130f0612d4a565b90506130fc82826130b5565b919050565b600067ffffffffffffffff82111561311c5761311b613086565b5b61312582612e68565b9050602081019050919050565b82818337600083830152505050565b600061315461314f84613101565b6130e6565b9050828152602081018484840111156131705761316f613081565b5b61317b848285613132565b509392505050565b600082601f8301126131985761319761307c565b5b81356131a8848260208601613141565b91505092915050565b6000602082840312156131c7576131c6612d54565b5b600082013567ffffffffffffffff8111156131e5576131e4612d59565b5b6131f184828501613183565b91505092915050565b61320381612ed4565b82525050565b61321281612f57565b82525050565b61322181612de3565b82525050565b60808201600082015161323d60008501826131fa565b50602082015161325060208501826131fa565b5060408201516132636040850182613209565b5060608201516132766060850182613218565b50505050565b60006080820190506132916000830184613227565b92915050565b6000602082840312156132ad576132ac612d54565b5b60006132bb84828501612faa565b91505092915050565b600081519050919050565b600082825260208201905092915050565b6000819050602082019050919050565b60808201600082015161330660008501826131fa565b50602082015161331960208501826131fa565b50604082015161332c6040850182613209565b50606082015161333f6060850182613218565b50505050565b600061335183836132f0565b60808301905092915050565b6000602082019050919050565b6000613375826132c4565b61337f81856132cf565b935061338a836132e0565b8060005b838110156133bb5781516133a28882613345565b97506133ad8361335d565b92505060018101905061338e565b5085935050505092915050565b600060208201905081810360008301526133e2818461336a565b905092915050565b6000806040838503121561340157613400612d54565b5b600061340f85828601612ef5565b925050602061342085828601612ef5565b9150509250929050565b61343381612de3565b811461343e57600080fd5b50565b6000813590506134508161342a565b92915050565b6000806040838503121561346d5761346c612d54565b5b600061347b85828601612faa565b925050602061348c85828601613441565b9150509250929050565b600067ffffffffffffffff8211156134b1576134b0613086565b5b6134ba82612e68565b9050602081019050919050565b60006134da6134d584613496565b6130e6565b9050828152602081018484840111156134f6576134f5613081565b5b613501848285613132565b509392505050565b600082601f83011261351e5761351d61307c565b5b813561352e8482602086016134c7565b91505092915050565b6000806000806080858703121561355157613550612d54565b5b600061355f87828801612faa565b945050602061357087828801612faa565b935050604061358187828801612ef5565b925050606085013567ffffffffffffffff8111156135a2576135a1612d59565b5b6135ae87828801613509565b91505092959194509250565b600080604083850312156135d1576135d0612d54565b5b600083013567ffffffffffffffff8111156135ef576135ee612d59565b5b6135fb85828601613183565b925050602061360c85828601612ef5565b9150509250929050565b6000806040838503121561362d5761362c612d54565b5b600061363b85828601612faa565b925050602061364c85828601612faa565b9150509250929050565b7f4e487b7100000000000000000000000000000000000000000000000000000000600052602260045260246000fd5b6000600282049050600182168061369d57607f821691505b602082108114156136b1576136b0613656565b5b50919050565b7f4552433732313a20617070726f76616c20746f2063757272656e74206f776e6560008201527f7200000000000000000000000000000000000000000000000000000000000000602082015250565b6000613713602183612e24565b915061371e826136b7565b604082019050919050565b6000602082019050818103600083015261374281613706565b9050919050565b7f4552433732313a20617070726f76652063616c6c6572206973206e6f7420746f60008201527f6b656e206f776e6572206e6f7220617070726f76656420666f7220616c6c0000602082015250565b60006137a5603e83612e24565b91506137b082613749565b604082019050919050565b600060208201905081810360008301526137d481613798565b9050919050565b7f4552433732313a2063616c6c6572206973206e6f7420746f6b656e206f776e6560008201527f72206e6f7220617070726f766564000000000000000000000000000000000000602082015250565b6000613837602e83612e24565b9150613842826137db565b604082019050919050565b600060208201905081810360008301526138668161382a565b9050919050565b7f596f7520616c7265616479206f776e2074686973204e46540000000000000000600082015250565b60006138a3601883612e24565b91506138ae8261386d565b602082019050919050565b600060208201905081810360008301526138d281613896565b9050919050565b7f506c65617365207375626d6974207468652061736b696e672070726963650000600082015250565b600061390f601e83612e24565b915061391a826138d9565b602082019050919050565b6000602082019050818103600083015261393e81613902565b9050919050565b7f496e646578206f7574206f6620626f756e647300000000000000000000000000600082015250565b600061397b601383612e24565b915061398682613945565b602082019050919050565b600060208201905081810360008301526139aa8161396e565b9050919050565b600081905092915050565b60006139c782612e19565b6139d181856139b1565b93506139e1818560208601612e35565b80840191505092915050565b60006139f982846139bc565b915081905092915050565b7f4e487b7100000000000000000000000000000000000000000000000000000000600052603260045260246000fd5b7f4552433732313a20696e76616c696420746f6b656e2049440000000000000000600082015250565b6000613a69601883612e24565b9150613a7482613a33565b602082019050919050565b60006020820190508181036000830152613a9881613a5c565b9050919050565b7f4552433732313a2061646472657373207a65726f206973206e6f74206120766160008201527f6c6964206f776e65720000000000000000000000000000000000000000000000602082015250565b6000613afb602983612e24565b9150613b0682613a9f565b604082019050919050565b60006020820190508181036000830152613b2a81613aee565b9050919050565b7f4e487b7100000000000000000000000000000000000000000000000000000000600052601160045260246000fd5b6000613b6b82612ed4565b91507fffffffffffffffffffffffffffffffffffffffffffffffffffffffffffffffff821415613b9e57613b9d613b31565b5b600182019050919050565b6000613bb482612ed4565b9150613bbf83612ed4565b9250827fffffffffffffffffffffffffffffffffffffffffffffffffffffffffffffffff03821115613bf457613bf3613b31565b5b828201905092915050565b7f596f7520617265206e6f74206f776e6572206f662074686973206e66742e0000600082015250565b6000613c35601e83612e24565b9150613c4082613bff565b602082019050919050565b60006020820190508181036000830152613c6481613c28565b9050919050565b7f546865206974656d20697320616c7265616479206c697374656420666f72207360008201527f616c652e00000000000000000000000000000000000000000000000000000000602082015250565b6000613cc7602483612e24565b9150613cd282613c6b565b604082019050919050565b60006020820190508181036000830152613cf681613cba565b9050919050565b7f596f75206e65656420746f2073656e642074686520726967687420616d6f756e60008201527f74206f66206c697374696e67206665652e000000000000000000000000000000602082015250565b6000613d59603183612e24565b9150613d6482613cfd565b604082019050919050565b60006020820190508181036000830152613d8881613d4c565b9050919050565b7f546f6b656e2055524920616c7265616479206578697374730000000000000000600082015250565b6000613dc5601883612e24565b9150613dd082613d8f565b602082019050919050565b60006020820190508181036000830152613df481613db8565b9050919050565b6000613e0782856139bc565b9150613e1382846139bc565b91508190509392505050565b7f4f776e61626c653a206e6577206f776e657220697320746865207a65726f206160008201527f6464726573730000000000000000000000000000000000000000000000000000602082015250565b6000613e7b602683612e24565b9150613e8682613e1f565b604082019050919050565b60006020820190508181036000830152613eaa81613e6e565b9050919050565b7f4552433732313a207472616e736665722066726f6d20696e636f72726563742060008201527f6f776e6572000000000000000000000000000000000000000000000000000000602082015250565b6000613f0d602583612e24565b9150613f1882613eb1565b604082019050919050565b60006020820190508181036000830152613f3c81613f00565b9050919050565b7f4552433732313a207472616e7366657220746f20746865207a65726f2061646460008201527f7265737300000000000000000000000000000000000000000000000000000000602082015250565b6000613f9f602483612e24565b9150613faa82613f43565b604082019050919050565b60006020820190508181036000830152613fce81613f92565b9050919050565b6000613fe082612ed4565b9150613feb83612ed4565b925082821015613ffe57613ffd613b31565b5b828203905092915050565b7f436f756e7465723a2064656372656d656e74206f766572666c6f770000000000600082015250565b600061403f601b83612e24565b915061404a82614009565b602082019050919050565b6000602082019050818103600083015261406e81614032565b9050919050565b7f4f776e61626c653a2063616c6c6572206973206e6f7420746865206f776e6572600082015250565b60006140ab602083612e24565b91506140b682614075565b602082019050919050565b600060208201905081810360008301526140da8161409e565b9050919050565b7f4552433732313a20617070726f766520746f2063616c6c657200000000000000600082015250565b6000614117601983612e24565b9150614122826140e1565b602082019050919050565b600060208201905081810360008301526141468161410a565b9050919050565b7f4552433732313a207472616e7366657220746f206e6f6e20455243373231526560008201527f63656976657220696d706c656d656e7465720000000000000000000000000000602082015250565b60006141a9603283612e24565b91506141b48261414d565b604082019050919050565b600060208201905081810360008301526141d88161419c565b9050919050565b7f45524337323155524953746f726167653a2055524920736574206f66206e6f6e60008201527f6578697374656e7420746f6b656e000000000000000000000000000000000000602082015250565b600061423b602e83612e24565b9150614246826141df565b604082019050919050565b6000602082019050818103600083015261426a8161422e565b9050919050565b7f5072696365206d757374206265206174206c6561737420312077656900000000600082015250565b60006142a7601c83612e24565b91506142b282614271565b602082019050919050565b600060208201905081810360008301526142d68161429a565b9050919050565b60006080820190506142f26000830187612fff565b6142ff6020830186612fff565b61430c6040830185612f69565b6143196060830184612def565b95945050505050565b600081519050919050565b600082825260208201905092915050565b600061434982614322565b614353818561432d565b9350614363818560208601612e35565b61436c81612e68565b840191505092915050565b600060808201905061438c6000830187612f69565b6143996020830186612f69565b6143a66040830185612fff565b81810360608301526143b8818461433e565b905095945050505050565b6000815190506143d281612d8a565b92915050565b6000602082840312156143ee576143ed612d54565b5b60006143fc848285016143c3565b91505092915050565b7f4e487b7100000000000000000000000000000000000000000000000000000000600052601260045260246000fd5b600061443f82612ed4565b915061444a83612ed4565b92508261445a57614459614405565b5b828204905092915050565b600061447082612ed4565b915061447b83612ed4565b92508261448b5761448a614405565b5b828206905092915050565b7f4e487b7100000000000000000000000000000000000000000000000000000000600052603160045260246000fd5b7f4552433732313a206d696e7420746f20746865207a65726f2061646472657373600082015250565b60006144fb602083612e24565b9150614506826144c5565b602082019050919050565b6000602082019050818103600083015261452a816144ee565b9050919050565b7f4552433732313a20746f6b656e20616c7265616479206d696e74656400000000600082015250565b6000614567601c83612e24565b915061457282614531565b602082019050919050565b600060208201905081810360008301526145968161455a565b905091905056fea2646970667358221220e7e011a1c654ee7912fc6ac0143b2c6d84edce6988bbefb9c2ae51de96f1ca0964736f6c634300080c0033",
  "immutableReferences": {},
  "source": "// SPDX-License-Identifier: MIT\npragma solidity >=0.4.22 <0.9.0;\n\nimport \"@openzeppelin/contracts/token/ERC721/extensions/ERC721URIStorage.sol\";\nimport \"@openzeppelin/contracts/utils/Counters.sol\";\nimport \"@openzeppelin/contracts/access/Ownable.sol\";\n\ncontract NftMarket is ERC721URIStorage, Ownable {\n  using Counters for Counters.Counter;\n\n  //public variables:\n  uint public listingFee = 0.025 ether; //cost for listing an item. --> TODO: make a function so that listingFee = min(0.025 ETH, 2.5% of Price of NFT)\n \n  //private variables:\n  Counters.Counter private _listedItems; //total number of listed NFT items in the NFTmarket.\n  Counters.Counter private _tokenIds; //total number of NFT created from the smart contract.\n  uint256[] private _allNfts; //store all the tokenIds in an array.\n\n  mapping(string => bool) private _usedTokenURIs; // https://whatever.com => true\n  mapping(uint => NftItem) private _idToNftItem; //tokenId => struct NftItem \n  mapping(uint => uint) private _idToNftIndex; // mapping of tokenId => index in arrray _allNfts\n\n  //mapping for user and associated NFT items\n  mapping(address => mapping(uint => uint)) private _ownedTokens; // address => {index => tokenId}\n  mapping(uint => uint) private _idToOwnedIndex; // tokenId => index\n\n  struct NftItem {\n    uint tokenId;\n    uint price;\n    address creator;\n    bool isListed;\n  }\n\n  event NftItemCreated (\n    uint tokenId,\n    uint price,\n    address creator,\n    bool isListed\n  );\n\n  constructor() ERC721(\"CreaturesNFT\", \"CNFT\") {} // ERC721( name of collection of NFTs, token name )\n\n  //the function below doesn't seem to make sense. The creator of the NFT should not be able to set the listing fee. The Marketplace should. So I am going to comment it out.\n  // function setListingFee(uint newFee) external onlyOwner { //external = only able to call the function from the outside of the contract. And onlyOwner can call it. \n  //   require(newFee > 0, \"The listing fee must be at least 1 wei\");\n  //   listingFee = newFee;\n  // }\n\n\n  \n  function mintToken(string memory tokenURI, uint price) public payable returns (uint) {\n    require(!tokenURIExists(tokenURI), \"Token URI already exists\");\n    require(msg.value == listingFee, \"You need to send the right amount of listing fee.\");\n\n    _tokenIds.increment();\n    _listedItems.increment();\n\n    uint newTokenId = _tokenIds.current();\n\n    _safeMint(msg.sender, newTokenId);\n    _setTokenURI(newTokenId, tokenURI);\n    _createNftItem(newTokenId, price);\n    _usedTokenURIs[tokenURI] = true;\n\n    return newTokenId;\n  }\n\n  function getNftItem(uint tokenId) public view returns (NftItem memory) {\n    return _idToNftItem[tokenId];\n  }\n\n  function listedItemsCount() public view returns (uint) {\n    return _listedItems.current();\n  }\n\n  function tokenURIExists(string memory tokenURI) public view returns (bool) {\n    return _usedTokenURIs[tokenURI] == true;\n  }\n\n  function buyNft(uint tokenId) public payable {\n    uint price = _idToNftItem[tokenId].price;\n    address owner = ERC721.ownerOf(tokenId);\n\n    require(msg.sender != owner, \"You already own this NFT\");\n    require(msg.value == price, \"Please submit the asking price\");\n\n    _idToNftItem[tokenId].isListed = false; //unlisted\n    _listedItems.decrement();\n\n    _transfer(owner, msg.sender, tokenId);\n    payable(owner).transfer(msg.value);\n  }\n\n  function placeNftForSale(uint tokenId, uint newPrice) public payable {\n    require(ERC721.ownerOf(tokenId) == msg.sender, \"You are not owner of this nft.\");\n    require(_idToNftItem[tokenId].isListed == false, \"The item is already listed for sale.\");\n    require(msg.value == listingFee, \"You need to send the right amount of listing fee.\");\n\n    _idToNftItem[tokenId].isListed = true; //listed\n    _idToNftItem[tokenId].price = newPrice;\n    _listedItems.increment();\n  }\n  \n  function totalSupply() public view returns (uint) {\n    return _allNfts.length; //returns Big Number.\n  }\n\n  function tokenByIndex(uint index) public view returns (uint) {\n    require(index < totalSupply(), \"Index out of bounds\");\n    return _allNfts[index]; \n  }\n\n  function tokenOfOwnerByIndex(address owner, uint index) public view returns (uint) {\n    require(index < ERC721.balanceOf(owner), \"Index out of bounds\");\n    return _ownedTokens[owner][index];\n  }\n\n  function getAllNftsForSale() public view returns (NftItem[] memory) {\n    uint allItemsCounts = totalSupply();\n    uint currentIndex = 0;\n    NftItem[] memory items = new NftItem[](_listedItems.current());\n\n    for (uint i = 0; i < allItemsCounts; i++) {\n      uint tokenId = tokenByIndex(i);\n      NftItem storage item = _idToNftItem[tokenId];\n\n      if (item.isListed == true) {\n        items[currentIndex] = item;\n        currentIndex += 1;\n      }\n    }\n    \n    return items; //returns array of all isListed == true items\n  }\n\n  function getOwnedNfts() public view returns (NftItem[] memory) {\n    uint ownedItemsCount = ERC721.balanceOf(msg.sender);\n    NftItem[] memory items = new NftItem[](ownedItemsCount);\n\n    for (uint i = 0; i < ownedItemsCount; i++) {\n      uint tokenId = tokenOfOwnerByIndex(msg.sender, i);\n      NftItem storage item = _idToNftItem[tokenId];\n      items[i] = item;\n    }\n\n    return items;\n  }\n\n  function _createNftItem(uint tokenId, uint price) private {\n    require(price > 0, \"Price must be at least 1 wei\");\n\n    _idToNftItem[tokenId] = NftItem(\n      tokenId,\n      price,\n      msg.sender,\n      true\n    );\n\n    emit NftItemCreated(tokenId, price, msg.sender, true);\n  }\n\n  function _beforeTokenTransfer(\n    address from,\n    address to,\n    uint tokenId\n  ) internal virtual override {\n    super._beforeTokenTransfer(from, to, tokenId);\n\n    // minting token\n    if (from == address(0)) {\n      _addTokenToAllTokensEnumeration(tokenId);\n    } else if (from != to) {\n      _removeTokenFromOwnerEnumeration(from, tokenId);\n    }\n\n    if (to == address(0)) { //  0   .\n      _removeTokenFromAllTokensEnumeration(tokenId);\n    } else if (to != from) {\n      _addTokenToOwnerEnumeration(to, tokenId);\n    }\n  }\n\n  function _addTokenToAllTokensEnumeration(uint tokenId) private {\n    _idToNftIndex[tokenId] = _allNfts.length;\n    _allNfts.push(tokenId);\n  }\n\n  function _addTokenToOwnerEnumeration(address to, uint tokenId) private {\n    uint length = ERC721.balanceOf(to); //total number of tokens that the address owns\n    _ownedTokens[to][length] = tokenId; //owner is mapped to tokenId\n    _idToOwnedIndex[tokenId] = length; //tokenId is mapped to length\n  }\n\n  function _removeTokenFromOwnerEnumeration(address from, uint tokenId) private {\n    uint lastTokenIndex = ERC721.balanceOf(from) - 1;\n    uint tokenIndex = _idToOwnedIndex[tokenId];\n\n    if (tokenIndex != lastTokenIndex) {\n      uint lastTokenId = _ownedTokens[from][lastTokenIndex];\n\n      _ownedTokens[from][tokenIndex] = lastTokenId;\n      _idToOwnedIndex[lastTokenId] = tokenIndex;\n    }\n\n    delete _idToOwnedIndex[tokenId];\n    delete _ownedTokens[from][lastTokenIndex];\n  }\n\n  //remove a certain token from all mapping/iteration functions:\n  function _removeTokenFromAllTokensEnumeration(uint tokenId) private {\n    uint lastTokenIndex = _allNfts.length - 1;\n    uint tokenIndex = _idToNftIndex[tokenId];\n    uint lastTokenId = _allNfts[lastTokenIndex];\n\n    _allNfts[tokenIndex] = lastTokenId;\n    _idToNftIndex[lastTokenId] = tokenIndex;\n\n    delete _idToNftIndex[tokenId];\n    _allNfts.pop();\n  }\n\n}\n\n",
  "sourcePath": "/Users/vivian/Documents/Coding/myProjects/nft-marketplace/contracts/NftMarket.sol",
  "compiler": {
    "name": "solc",
    "version": "0.8.12+commit.f00d7308.Emscripten.clang"
  },
  "schemaVersion": "3.4.6",
  "updatedAt": "2022-10-05T19:59:37.746Z",
  "networkType": "ethereum",
  "devdoc": {
    "kind": "dev",
    "methods": {
      "approve(address,uint256)": {
        "details": "See {IERC721-approve}."
      },
      "balanceOf(address)": {
        "details": "See {IERC721-balanceOf}."
      },
      "getApproved(uint256)": {
        "details": "See {IERC721-getApproved}."
      },
      "isApprovedForAll(address,address)": {
        "details": "See {IERC721-isApprovedForAll}."
      },
      "name()": {
        "details": "See {IERC721Metadata-name}."
      },
      "owner()": {
        "details": "Returns the address of the current owner."
      },
      "ownerOf(uint256)": {
        "details": "See {IERC721-ownerOf}."
      },
      "renounceOwnership()": {
        "details": "Leaves the contract without owner. It will not be possible to call `onlyOwner` functions anymore. Can only be called by the current owner. NOTE: Renouncing ownership will leave the contract without an owner, thereby removing any functionality that is only available to the owner."
      },
      "safeTransferFrom(address,address,uint256)": {
        "details": "See {IERC721-safeTransferFrom}."
      },
      "safeTransferFrom(address,address,uint256,bytes)": {
        "details": "See {IERC721-safeTransferFrom}."
      },
      "setApprovalForAll(address,bool)": {
        "details": "See {IERC721-setApprovalForAll}."
      },
      "supportsInterface(bytes4)": {
        "details": "See {IERC165-supportsInterface}."
      },
      "symbol()": {
        "details": "See {IERC721Metadata-symbol}."
      },
      "tokenURI(uint256)": {
        "details": "See {IERC721Metadata-tokenURI}."
      },
      "transferFrom(address,address,uint256)": {
        "details": "See {IERC721-transferFrom}."
      },
      "transferOwnership(address)": {
        "details": "Transfers ownership of the contract to a new account (`newOwner`). Can only be called by the current owner."
      }
    },
    "version": 1
  },
  "userdoc": {
    "kind": "user",
    "methods": {},
    "version": 1
  }
}